:1000000040C064C063C062C061C060C05FC05EC009
:100010005DC0E7C15BC014C359C058C057C056C0CB
:1000200055C054C053C000000000370034003100F8
:1000300000000000380035003200000000003600EB
:100040003300300004040404040404040202020225
:10005000020203030303030301020408102040808B
:100060000102040810200102040810200000000012
:100070000000000000030405000000000000000074
:10008000A10411241FBECFE5D4E0DEBFCDBF11E037
:10009000A0E6B0E0EEE2FDE002C005900D92AE36C3
:1000A000B107D9F712E0AEE6B1E001C01D92A93266
:1000B000B107E1F710E0C2E8D0E003C02297FE01EB
:1000C00030D6C038D107D1F788D12FC699CF0F933A
:1000D0001F9306E112E0C80160E670E0ABD4C801EE
:1000E0006CE771E0C6D41F910F910895823091059D
:1000F00051F08330910589F00197D1F486E192E0C7
:100100006DE670E019C086E192E06CE870E0B1D471
:1001100086E192E06CEB70E00FC086E192E06DED5D
:1001200070E088D486E192E06AE070E067D50895D7
:1001300086E192E06EE071E09CD4089580917A01AE
:1001400090917B01009721F0019709F09BC041C07D
:1001500086E192E09DD3882309F49CC086E192E079
:10016000AAD3843571F085353CF4873491F082351B
:1001700061F0823259F514C0873671F0823731F55B
:1001800006C086E192E064E555C08BE003C08BE0D9
:1001900004C08AE061E002C08AE060E0E1D1089535
:1001A00081E090E090937B0180937A0162D160932B
:1001B0007601709377018093780190937901109282
:1001C0007C011092880110928701089581E090E0EF
:1001D00049C04FD12091760130917701409178014B
:1001E000509179012C503E4F4F4F5F4F26173707E4
:1001F0004807590768F410927C0110928801109208
:10020000870110927B0110927A0182E090E06EDF0C
:1002100086E192E03DD38823E9F186E192E04BD379
:10022000823251F410927B0110927A0150DF86E104
:1002300092E06BE4F7D30895209187013091880113
:100240002A3031058CF010927C01109288011092B6
:10025000870186E192E056D310927B0110927A01D9
:1002600083E090E043DF0895F901E458FE4F808376
:10027000F9013196F0938801E0938701E458FE4F2D
:10028000108208958DE061E06BD186E192E069E231
:1002900071E0EFD308950F931F93CF93DF9382E024
:1002A00096D18C018CE093D1EC0101301105F9F469
:1002B000E0D020917201309173014091740150910E
:1002C0007501621B730B840B950B6D52714080405E
:1002D000904068F086E192E062E4A4D3CAD06093D3
:1002E000720170937301809374019093750121974B
:1002F000F9F4BFD020916E0130916F0140917001EF
:1003000050917101621B730B840B950B6D52714000
:100310008040904068F086E192E060E583D3A9D008
:1003200060936E0170936F018093700190937101DF
:10033000DF91CF911F910F910895ADDFFFDE0895FA
:100340008DE061E0EDD08CE060E0EAD082E060E03A
:10035000E7D08BE061E0E4D08AE061E0E1D0109288
:100360006E0110926F011092700110927101109243
:100370007201109273011092740110927501109223
:100380007B0110927A011092880110928701ECE7AC
:10039000F1E0119281E0E738F807D9F786E192E0C1
:1003A00040E855E260E070E086D18DE061E0D8D0B1
:1003B0008BE061E0D5D08AE061E0D2D064EF71E0FB
:1003C00080E090E064D08DE060E0CAD08BE060E037
:1003D000C7D08AE060E0C4D0089583D0B1DFADDF3C
:1003E000FECF1F920F920FB60F9211242F933F93BF
:1003F0008F939F93AF93BF9380918D0190918E01C6
:10040000A0918F01B0919001309191010196A11DB1
:10041000B11D232F2D5F2D3720F02D570196A11DE3
:10042000B11D2093910180938D0190938E01A09333
:100430008F01B09390018091890190918A01A091E0
:100440008B01B0918C010196A11DB11D8093890192
:1004500090938A01A0938B01B0938C01BF91AF91CF
:100460009F918F913F912F910F900FBE0F901F90F2
:1004700018958FB7F89420918D0130918E0140919D
:100480008F01509190018FBFB901CA010895EF9279
:10049000FF920F931F937B018C018FB7F8944091CB
:1004A0008D0150918E0160918F01709190018FBFED
:1004B0002FB7F89480918D0190918E01A0918F01BA
:1004C000B09190012FBF841B950BA60BB70BE816BC
:1004D000F9060A071B0760F71F910F91FF90EF9035
:1004E0000895789483B7826083BF83B7816083BFA8
:1004F00089B7816089BF8EB582608EBD8EB58160FF
:100500008EBD8FB581608FBD85B5846085BD85B595
:10051000806485BD329A319A309A379A1AB8089514
:10052000282F30E0C901885A9F4FFC0194912C5B21
:100530003F4FF9018491882391F0E82FF0E0EE0F0E
:10054000FF1FEA5DFF4FA591B491662329F48C91BA
:10055000909589238C9308958C91892B8C93089581
:10056000482F50E0CA0184599F4FFC012491CA01D1
:10057000885A9F4FFC0194914C5B5F4FFA01349174
:10058000332321F1222381F0233019F48FB58F77A3
:1005900004C0243021F48FB58F7D8FBD05C0253078
:1005A00019F485B58F7D85BDE32FF0E0EE0FFF1FB9
:1005B000E05DFF4FA591B491662329F48C9190954D
:1005C00089238C9308958C91892B8C930895682F9F
:1005D00070E0CB0184599F4FFC012491CB01885AD4
:1005E0009F4FFC0144916C5B7F4FFB0194919923D9
:1005F00019F420E030E022C0222381F0233019F4E6
:100600008FB58F7704C0243021F48FB58F7D8FBDD7
:1006100005C0253019F485B58F7D85BD892F90E003
:10062000880F991F865C9F4FFC01A591B4918C9116
:1006300020E030E0842311F021E030E0C90108958A
:100640001F920F920FB60F9211242F933F934F9347
:100650005F936F937F938F939F93AF93BF93EF932A
:10066000FF934CB1E0911202F0911302CF01019679
:1006700060E870E0F0D29C01809114029091150224
:100680002817390739F0EE56FE4F40833093130296
:1006900020931202FF91EF91BF91AF919F918F91A3
:1006A0007F916F915F914F913F912F910F900FBE6E
:1006B0000F901F9018955F926F927F928F929F92EA
:1006C000AF92BF92CF92DF92EF92FF920F931F9360
:1006D000CF93DF93EC013A014B01413482E4580798
:1006E0008FE0680780E078070CF075C060E874E878
:1006F0008EE190E0A4019301E3D2215030404040CC
:100700005040CA01B90122E030E040E050E0D8D2C8
:1007100059016A01A60195012095309540955095A3
:1007200094E0220F331F441F551F9A95D1F760E0C4
:1007300074E284EF90E0C4D2CA01B9012FEF30E037
:1007400040E050E069D2A4019301BAD2C9018150BE
:100750009F4F181619061CF4522E5A9403C05524A4
:100760005394521A60E079E08DE390E0A401930184
:10077000A7D22150304040405040CA01B90122E088
:1007800030E040E050E09CD2209530954095509567
:1007900083E0220F331F441F551F8A95D1F760E075
:1007A00074E284EF90E08CD2CA01B9012FEF30E0FF
:1007B00040E050E031D2A401930182D2C9018150BE
:1007C0009F4F181619061CF4822F815002C081E039
:1007D000821B8515F0F4E885F98581E090E00A88B0
:1007E00002C0880F991F0A94E2F7808360E079E0E5
:1007F0008DE390E0A401930163D22150304040404A
:100800005040CA01B90122E030E040E050E058D247
:1008100004C0E885F98510829501EC81FD81308363
:10082000EE81FF812083EA85FB85208141E050E055
:10083000CA010E8402C0880F991F0A94E2F7282B80
:100840002083EA85FB852081CA010F8402C0880FBE
:10085000991F0A94E2F7282B2083EA85FB85808183
:10086000088802C0440F551F0A94E2F7842B808346
:10087000DF91CF911F910F91FF90EF90DF90CF907C
:10088000BF90AF909F908F907F906F905F900895F2
:10089000DC011296ED91FC911397E058FF4F819186
:1008A000919180589F4F20813181821B930B60E88A
:1008B00070E0D1D10895CF93DF93DC011296ED91D2
:1008C000FC911397EF01CE57DF4F48815981E058D3
:1008D000FF4F80819181E058F0408417950719F40B
:1008E0002FEF3FEF0BC0E40FF51F2081CA010196E7
:1008F00060E870E0B0D19983888330E0C901DF916E
:10090000CF910895DC011296ED91FC911397EE576B
:10091000FF4F80819181929382930895FC01A0857D
:10092000B18521898C9190E0022E02C09595879522
:100930000A94E2F780FFF6CF0484F585E02D60830A
:10094000089587E691E0909317028093160282E95A
:1009500091E0909319028093180280E490E09093C4
:100960001B0280931A0289E290E090931D0280930B
:100970001C028BE290E090931F0280931E028AE299
:1009800090E090932102809320028CE290E090937B
:1009900023028093220284E08093240283E08093E8
:1009A000250287E08093260285E08093270281E07C
:1009B0008093280208950F931F93CF93DF938C01A8
:1009C000EB0109C02196D801ED91FC910190F081D5
:1009D000E02DC801099568816623A1F7DF91CF91C9
:1009E0001F910F910895EF92FF920F931F93CF9352
:1009F000DF938C017B01EA010CC0D7016D917D0171
:100A0000D801ED91FC910190F081E02DC80109958C
:100A10002197209791F7DF91CF911F910F91FF9030
:100A2000EF900895DC01ED91FC910190F081E02DB3
:100A300009950895DC01ED91FC910280F381E02D90
:100A4000099508950F931F938C01DC01ED91FC91A2
:100A50000190F081E02D6DE00995D801ED91FC91B8
:100A60000190F081E02DC8016AE009951F910F9176
:100A700008950F931F938C01DDDFC801E3DF1F9101
:100A80000F9108952F923F924F925F926F927F92B3
:100A90008F929F92AF92BF92CF92DF92EF92FF928E
:100AA0000F931F93DF93CF93CDB7DEB7A0970FB609
:100AB000F894DEBF0FBECDBF1C016A017B0141155A
:100AC00051056105710549F4DC01ED91FC9101903E
:100AD000F081E02D60E3099552C0882499245401E7
:100AE000422E55246624772401E010E00C0F1D1FD0
:100AF000080D191DC701B601A3019201BFD0F8016D
:100B000060830894811C911CA11CB11CC701B60113
:100B1000A3019201B3D0C901DA016C017D01C114B6
:100B2000D104E104F10401F781E0E82EF12CEC0E90
:100B3000FD1EE80CF91C3E010894611C711CD501D6
:100B4000C4010197A109B1096C01C818D90814C0E2
:100B5000F601EE0DFF1D60816A3010F4605D01C08A
:100B6000695CD101ED91FC910190F081E02DC10112
:100B700009950894E108F1086E147F0449F7A096DE
:100B80000FB6F894DEBF0FBECDBFCF91DF911F919E
:100B90000F91FF90EF90DF90CF90BF90AF909F901C
:100BA0008F907F906F905F904F903F902F9008951F
:100BB000EF92FF920F931F93CF93DF93EC017A0193
:100BC0008B0177FF0FC0E881F9810190F081E02D62
:100BD0006DE2099510950095F094E094E11CF11CEC
:100BE000011D111DCE01B801A7012AE04BDFDF91E5
:100BF000CF911F910F91FF90EF9008950F931F9346
:100C00008C01AB01662757FD6095762FD1DFC801B7
:100C100019DF1F910F910895629FD001739FF0011A
:100C2000829FE00DF11D649FE00DF11D929FF00D7C
:100C3000839FF00D749FF00D659FF00D9927729FB3
:100C4000B00DE11DF91F639FB00DE11DF91FBD013E
:100C5000CF011124089597FB092E07260AD077FDAE
:100C600004D049D006D000201AF4709561957F4FCA
:100C70000895F6F7909581959F4F0895A1E21A2E59
:100C8000AA1BBB1BFD010DC0AA1FBB1FEE1FFF1F30
:100C9000A217B307E407F50720F0A21BB30BE40B80
:100CA000F50B661F771F881F991F1A9469F76095C7
:100CB0007095809590959B01AC01BD01CF01089581
:100CC00097FB092E05260ED057FD04D0D7DF0AD09A
:100CD000001C38F450954095309521953F4F4F4F6B
:100CE0005F4F0895F6F790958095709561957F4FC9
:100CF0008F4F9F4F0895AA1BBB1B51E107C0AA1F2E
:100D0000BB1FA617B70710F0A61BB70B881F991FAC
:100D10005A95A9F780959095BC01CD010895EE0FE5
:0E0D2000FF1F0590F491E02D0994F894FFCF89
:100D2E00444953504C4159494E473A20004552527E
:100D3E004F523A20496E76616C696420696E707507
:100D4E00742072656365697665642E004552524F54
:100D5E00523A2054696D656F7574207768696C65B9
:100D6E002077616974696E6720666F72206469739B
:100D7E00706C617920696E7075742E0044697370A1
:100D8E006C617920696E707574206D757374206551
:100D9E006E642077697468202722272E00455252F0
:100DAE004F523A20446973706C617920696E707588
:100DBE007420697320746F6F206C6F6E672E204DD8
:100DCE006178206C656E67746820697320004552E7
:100DDE00524F523A20756E6B6E6F776E206572723F
:100DEE006F7220636F64652E004552524F523A2047
:100DFE00496E76616C696420737461746520666FE8
:100E0E00756E6420696E2073657269616C5F696EC0
:100E1E007075745F7461736B2066756E6374696F41
:0E0E2E006E2E00000000008E04DB04F30400B2
:00000001FF
